:0200000420409A
:100000009711C05F938101FA9702000093828201E9
:100010007390523093021000638402007350107C7E
:100020009702000093828215739052301701C0DF4F
:10003000130141FD63140100138101D0732540F1C8
:10004000814213030040137101FF6385A2001A91DE
:100050008502D5BF970000009380A0046383000051
:100060008290732540F1814501462D229700C0DF23
:10007000938040F96383000082909702000093828E
:10008000C2007390523003230000F5BF000000004F
:100090008280232003001103E34D73FE82800684D7
:1000A0009702C0DF938202F66385020C9702C0DFDD
:1000B000938242F5F32740F1A14673B00630639670
:1000C000570A1703C0DF1303E3F39703C0DF9383DB
:1000D00063F3630E7300753F1703C0DF130383F2EE
:1000E0009703C0DF938303F2630373005D37170345
:1000F000C05F130323F19703C15F9383A3F06303EE
:100100007300413F1703C0DF1303C3EF9703C0DF42
:10011000938343EF63037300AD3F1703C0DF130303
:1001200063EE9703C0DF9383E3ED630373009537BA
:100130001703C0DF130303ED9703C0DF938383EC42
:1001400063037300B9371703C0DF1303A3EB9703EF
:10015000C0DF938323EB63037300253F370700025F
:1001600085471CC30F00300129A0370700021C433C
:10017000EDDFA28082800000F3222034732310344C
:10018000F3233034D5BF411122C6000801003244A8
:100190004101828006849711C05F9381A1E09302A0
:1001A00000006317550A97620000938222491703E3
:1001B000C05F130323E59703C05F9383A363638C3E
:1001C0006200635A730003A5020091022320A3007A
:1001D0001103E34A73FE97120000938222D717039C
:1001E000C05F130323E29703C05F9383A3E1638C93
:1001F0006200635A730003A5020091022320A3004A
:100200001103E34A73FE0F1000001703C05F1303CE
:10021000635E9383418F63577300232003001103B0
:10022000E34D73FE1702C05F1302C25C11C2029657
:1002300017250000130545A5EF10B020EF1010287A
:10024000172500001305A5D3EF10B01FEF10B05114
:100250001D3FFD5673B0463073B04634F32710305F
:10026000372704007D8F09C773B0363073B026304E
:10027000370704007D8F19C373B0061837070100D4
:1002800013078702F98F89CBF32700300967D98FCD
:100290007390073073503000054597050000938533
:1002A000A51417060000130666143120EF10D01AAB
:1002B000A28082808280411106C2F32240F11303A2
:1002C00000006385620073005010F5BFEF00504BD3
:0602D00092404101828012
:0C02D800E40240200803402034034020D2
:1002E400411106C622C40008F16793850720B707A9
:1002F400008013858775EF10704E0100B2402244D0
:1003040041018280011106CE22CC0010EF40B010D2
:100314002326A4FE8327C4FE99C7B707008013854C
:100324000779EF40D0170100F240624405618280F2
:10033400011106CE22CC0010EF40F00D2326A4FEBE
:100344008325C4FEB707008013850779EF6080001A
:0A0354000100F2406244056182805E
:1003600048656C6C6F2C20576F726C642100000024
:1003700048656C6C6F2C2053656D69466976652104
:10038000000000000000000000000000000000006D
:10039000000000000000000000000000000000005D
:1003A000000000000000000000000000000000004D
:1003B000000000000000000000000000000000003D
:1003C000000000000000000000000000000000002D
:1003D000000000000000000000000000000000001D
:1003E00000000000EC034020000000006C69626720
:1003F0006C6F737300000000842240202A24402088
:100400000E244020000000000000000018274020BB
:100410004C2740200C234020E6234020822440200B
:100420003425402000000000000000000000000013
:1004300000000000000000000000000000000000BC
:1004400000000000E6254020B82140200000000008
:10045000000000000000000000000000E63740201F
:10046000D8374020AC374020AC374020C23740203E
:10047000A03840200639402006394020B2384020BC
:10048000063940200639402006394020C438402033
:10049000063940200639402006394020D638402011
:1004A00006394020063940200639402006394020D0
:1004B000E8384020E8384020E8384020E83840203C
:1004C000E8384020E8384020E8384020E83840202C
:1004D000E8384020E8384020E8384020E83840201C
:1004E000E8384020E8384020E8384020E83840200C
:1004F00068394020903C4020743C402000000000BF
:100500000000000000000000000000004A3A402007
:1005100000000000203C40204A3C40200000000039
:1005200000000000000000000000000000000000CB
:10053000000000000000000000000000E43C40203B
:1005400000000000000000000000000000000000AB
:1005500000000000003D4020723D4020B83D40209A
:100560001E3E4020943E4020AA3E4020BE3E4020F9
:10057000D43E4020E83E40204A3F4020AC3F40204F
:100580000C4040202C40402072404020A0404020A1
:10059000BE404020DE404020D64440200000000005
:1005A000000000000000000000000000000000004B
:1005B000000000002646402000000000E6464020E3
:1005C000364740200000000000000000B6474020F1
:1005D0008647402044434020E24240200000000083
:1005E000000000000000000000000000DE47402086
:1005F0007A484020164940208A49402001000000E6
:1006000020000000001BB70000366E010100000052
:100610001F000000030000003F0000000100000078
:100620002000000000366E01006CDC0203000000B8
:100630001F000000020000003F0000000100000059
:1006400010000000808D5B00001BB7000000000060
:100650001F000000030000003F0000000100000038
:1006600010000000001BB70000366E010100000002
:100670001F000000020000003F0000000100000019
:100680001000000000366E01006CDC020300000068
:100690001F000000020000001F0000000100000019
:1006A00008000000808D5B00001BB7000000000008
:1006B0001F000000030000001F00000001000000F8
:1006C00008000000001BB70000366E0101000000AA
:1006D0001F000000020000001F00000001000000D9
:1006E0000800000000366E01006CDC020300000010
:1006F0001F000000020000000F00000001000000C9
:1007000004000000808D5B00001BB70000000000AB
:100710001F000000030000000F00000001000000A7
:1007200004000000001BB70000366E01010000004D
:100730001F000000020000000F0000000100000088
:100740000400000000366E01006CDC0203000000B3
:100750001F00000002000000070000000100000070
:1007600002000000808D5B00001BB700000000004D
:100770001F000000020000000F0000000100000048
:1007800002000000001BB70000366E0101000000EF
:100790001F000000010000000F0000000100000029
:1007A0000200000000366E01006CDC020300000055
:1007B0001F00000001000000070000000200000010
:1007C00001000000808D5B00001BB70000000000EE
:1007D0001F000000010000000700000002000000F0
:1007E00001000000001BB70000366E010100000090
:1007F0001F000000010000000300000002000000D4
:100800000100000000366E01006CDC0203000000F5
:100810001F00000003000000FFFFFFFF04000000B6
:1008200001000000808D5B00001BB700000000008D
:100830001F00000003000000000000000400000092
:1008400001000000001BB70000366E01010000002F
:100850001F00000003000000FFFFFFFF0400000076
:100860000100000000366E01006CDC020300000095
:100870001F00000002000000FFFFFFFF0600000055
:1008800001000000808D5B00AAC2A20000000000F1
:10089000230000000100000002000000060000002C
:1008A00001000000AAC2A200001BB7000000000067
:1008B0001700000003000000FFFFFFFF060000001C
:1008C00001000000001BB7000024F400010000003C
:1008D0002F00000003000000FFFFFFFF06000000E4
:1008E000010000000024F40080A8120101000000B3
:1008F0001700000002000000FFFFFFFF06000000DD
:100900000100000080A81201558545010200000089
:100910002300000002000000FFFFFFFF08000000AE
:1009200001000000808D5B00001BB700000000008C
:100930001F00000003000000FFFFFFFF0800000091
:1009400001000000001BB70000366E01010000002E
:100950001F00000002000000FFFFFFFF0800000072
:100960000100000000366E01006CDC020300000094
:100970001F00000001000000FFFFFFFF0A00000051
:1009800001000000808D5B00007C920000000000F0
:100990002700000003000000FFFFFFFF0A00000027
:1009A00001000000007C9200001BB7000000000066
:1009B0001300000002000000FFFFFFFF0A0000001C
:1009C00001000000001BB70000F824010100000036
:1009D0002700000002000000FFFFFFFF0A000000E8
:1009E0000100000000F8240100366E010100000043
:1009F0001300000001000000FFFFFFFF0A000000DD
:100A00000100000000366E0100F049020300000002
:100A10002700000001000000FFFFFFFF0C000000A6
:100A200001000000808D5B0000127A0000000000D1
:100A30002F00000003000000FFFFFFFF0C0000007C
:100A40000100000000127A00001BB7000000000047
:100A50001700000002000000FFFFFFFF0C00000075
:100A600001000000001BB7000024F400010000009A
:100A70002F00000002000000FFFFFFFF0C0000003D
:100A8000010000000024F40000366E0101000000A7
:100A90001700000001000000FFFFFFFF0C00000036
:100AA0000100000000366E0180C3C9010300000090
:100AB0002F00000001000000FFFFFFFF0C000000FE
:100AC0000100000080C3C9010048E80103000000E4
:100AD0002F00000001000000FFFFFFFF0E000000DC
:100AE00001000000808D5B00B6A1680000000000DE
:100AF0003700000003000000FFFFFFFF0E000000B2
:100B000001000000B7A16800001BB7000000000052
:100B10001B00000002000000FFFFFFFF0E000000AE
:100B200001000000001BB7006D43D1000100000070
:100B30003700000002000000FFFFFFFF0E00000072
:100B4000010000006E43D10000366E01010000007C
:100B50001B00000001000000FFFFFFFF0E0000006F
:100B60000100000000366E01DB86A20103000000D8
:100B70003700000001000000FFFFFFFF1000000031
:100B800001000000808D5B00001BB700000000002A
:100B90001F00000002000000FFFFFFFF1000000028
:100BA00001000000001BB70000366E0101000000CC
:100BB0001F00000001000000FFFFFFFF1200000007
:100BC00001000000808D5B00AAC2A20000000000AE
:100BD0002300000002000000FFFFFFFF12000000E2
:100BE00001000000ABC2A200001BB7000000000023
:100BF0001100000001000000FFFFFFFF12000000D5
:100C000001000000001BB7005585450101000000F0
:100C10002300000001000000FFFFFFFF14000000A0
:100C200001000000808D5B00007C9200000000004D
:100C30002700000002000000FFFFFFFF140000007B
:100C400001000000007C9200001BB70000000000C3
:100C50001300000001000000FFFFFFFF1400000070
:100C600001000000001BB70000F824010100000093
:100C70002700000001000000FFFFFFFF160000003A
:100C800001000000808D5B00E82A85000000000064
:100C90002B00000002000000FFFFFFFF1600000015
:100CA00001000000E92A8500001BB70000000000D9
:100CB0001500000001000000FFFFFFFF160000000C
:100CC00001000000001BB700D1550A01010000001F
:100CD0002B00000001000000FFFFFFFF18000000D4
:100CE00001000000808D5B0000127A00000000000F
:100CF0002F00000002000000FFFFFFFF18000000AF
:100D00000100000000127A00001BB7000000000084
:100D10001700000001000000FFFFFFFF18000000A7
:100D200001000000001BB7000024F40001000000D7
:100D30002F00000001000000FFFFFFFF1A0000006D
:100D400001000000808D5B0027AE700000000000F5
:100D50003300000002000000FFFFFFFF1A00000048
:100D60000100000028AE7000001BB700000000006A
:100D70001900000001000000FFFFFFFF1A00000043
:100D800001000000001BB7006658E10001000000F0
:100D90003300000001000000FFFFFFFF1C00000007
:100DA00001000000808D5B00B6A16800000000001B
:100DB0003700000002000000FFFFFFFF1C000000E2
:100DC00001000000B7A16800001BB7000000000090
:100DD0001B00000001000000FFFFFFFF1C000000DF
:100DE00001000000001BB7006D43D10001000000AE
:100DF0003700000001000000FFFFFFFF1E000000A1
:100E000001000000808D5B0000A861000000000070
:100E10003B00000002000000FFFFFFFF1E0000007B
:100E20000100000000A86100001BB70000000000E6
:100E30001D00000001000000FFFFFFFF1E0000007A
:100E400001000000001BB7000050C30001000000BB
:100E50003B00000001000000FFFFFFFF200000003A
:100E600001000000808D5B00001BB7000000000047
:100E70001F00000001000000FFFFFFFFA24C402008
:100E8000464D402004514020FA57402078584020D9
:100E900090584020AC584020FA584020DE5840205E
:100EA000165940204C5940203A5B4020005A4020BF
:100EB000185A4020345A4020825A4020665A402016
:100EC0009E5A4020D45A402024554020E6544020C9
:100ED0006A55402094554020C05540200656402079
:100EE0004656402086564020CC5640200C57402085
:100EF0006E574020B8574020BE594020465B4020E6
:100F0000665B4020CC6140206E5F40204A5E4020FE
:100F1000AE5F402004604020246040202E5D4020D1
:100F20004C5D40206A5D4020A25D4020D85D40209D
:100F3000125E40207A5E4020C45E4020F45E402075
:080F40003E5F402000000000AC
:100F8000411106C622C40008B70740201385073662
:100F9000CD28B707402013850737E52081473E85D8
:100FA000B240224441018280011126CA4AC806CEBD
:100FB00022CC4EC652C4AA842E8901C51C4D91E391
:100FC00011239C4C804499E32685ED2997F7FFFF78
:100FD0009387873D631CF402C0408357C400A18BF4
:100FE000B1C71C48A1C7FD59294A1C4483450900C3
:100FF000FD17B1E91CC463DE07062286A9452685D4
:101000004128FD576308F502294535A097F7FFFFF2
:101010009387873B6314F4008044C1B797F7FFFFC1
:1010200093878736E31BF4FAC04445BFA285268523
:10103000052255D97D55F2406244D2444249B24915
:10104000224A056182801CC4050963D70700184C39
:1010500063CBE700638945011C401387170018C064
:101060002380B70059B7228626851D20E31F35F758
:10107000D1B71C401387170018C029472380E70009
:1010800061B797F7BF5F9387E771AA85884329BF48
:10109000011122CC26CA4AC806CE4EC6AA842E8981
:1010A000328401C51C4D91E3312997F7FFFF9387E7
:1010B000A72F6319F406C0401C4C1CC48357C400FE
:1010C000A18BC9C31C48BDCF1C4808409379F90FB8
:1010D0001379F90F1D8D5C486346F500A2852685BE
:1010E000E9242DE51C440505FD171CC41C4013878D
:1010F000170018C0238037015C486389A700835715
:10110000C400858B81CBA9476316F900A28526858B
:10111000692C0DEDF24062444A85D2444249B249FD
:101120000561828097F7FFFF9387072A6314F40015
:10113000804459B797F7FFFF93870725E31EF4F61E
:10114000C0449DBFA285268521203DDD7D59D9B7AC
:10115000411197F7BF5F9387E76426C2844322C497
:101160004AC006C62A892E8489C49C4C99E32685E8
:10117000912E97F7FFFF93872723631CF402C0404B
:101180000317C40093170701C18393F68700B5EED8
:1011900093F607019DEEA5472320F9001367070486
:1011A0002316E4007D55B240224492440249410195
:1011B000828097F7FFFF938727216314F400804410
:1011C000C1B797F7FFFF9387271CE31BF4FAC044CE
:1011D00045BF918B8DC74C5889C9930744046384DC
:1011E000F5004A85A12B232A04028357C400232239
:1011F000040093F7B7FD2316F4001C481CC0835766
:10120000C40093E787002316F4001C4881EF83573E
:10121000C4001307002093F707286385E700A28521
:101220004A85BD218357C40013F7170005C75C48E2
:1012300023240400B307F0401CCC1C480145A5F74B
:101240008317C40013F7070839DF93E70704231651
:10125000F40089BF898B014791E3584818C4F1BF56
:1012600083D7C500011122CC26CA06CE4AC84EC675
:1012700013F78700AA842E8465E7D8416347E0000E
:10128000B8416344E0000145C1A058546DDF03A993
:1012900004009396370123A0040063DE0606684825
:1012A0008357C400918B99C75C401D8D5C5899C3CE
:1012B0003C401D8D5C540C502A86814626858297C1
:1012C000FD570357C400631DF5009440F54763E4E0
:1012D000D708B70740208507B3D7D700858BA5CFA0
:1012E0001C48232204001CC09317370163D8070051
:1012F000FD576314F5009C4091E368C84C5823A047
:101300002401D1D1930744046384F50026853D214F
:10131000232A04028DBF0C5085460146268502977C
:10132000FD57E31FF5F69C40A5DF75476385E70091
:1013300059476395E70023A02401B1B78357C40040
:1013400093E707042316F400F2406244D244424972
:10135000B24905618280136707042316E400EDB7E4
:1013600083A90501E38109F203A905008D8B23A060
:10137000350133093941014791E3D84918C4E35491
:1013800020F11C540C50CA864E8626858297634AEB
:10139000A0008357C4007D5593E707042316F4008B
:1013A00065B7AA993309A940D9BF9C49B9CF0111A2
:1013B00022CC06CE2A8411C51C4D81E72EC61922E7
:1013C000B24597F7FFFF938727FE639BF5004C40DC
:1013D0008397C50095C722856244F240056149B5EF
:1013E00097F7FFFF938747FE6394F5000C44CDB752
:1013F00097F7FFFF938747F9E39CF5FC4C44C9BF7F
:10140000F2406244014505618280014582804111BC
:1014100022C406C62A842316B5002317C50023203C
:101420000500232205002324050023220506232886
:101430000500232A0500232C0500214681451305BC
:10144000C505ED24970700009387A74A5CD097074E
:1014500000009387074D1CD49707000093874751DE
:101460005CD4970700009387075400D01CD8B24083
:1014700022444101828097050000938545F3B9A27B
:10148000411126C2130680069384F5FFB384C4027B
:101490004AC02E8922C406C693854407B1262A84F1
:1014A00019C92320050023222501310508C413860C
:1014B00084068145A52C2285B240224492440249EB
:1014C000410182801C4DBDE3411106C622C497072D
:1014D0000000938787FA1CD597F7BF5F9387C72CC7
:1014E0009C432324050423260504232805046314B0
:1014F000F50085471CCD2A841D2848C02285052873
:1015000008C422852D2048C4484001469145013732
:1015100008440546A545E53D48440946C945C53D3D
:1015200085471CCCB2402244410182808280411117
:1015300097F7BF5F9387472726C284434AC006C6F2
:101540009C4C22C42A8999E32685AD3F9384840468
:101550008044DC40FD1763D607009C40B1CF844037
:10156000C5BF0317C40031E7C177850723220406EE
:101570002320040023220400232404005CC4232825
:101580000400232A0400232C04002146814513056E
:10159000C405692A232A0402232C040223240404F8
:1015A000232604042285B240224492440249410188
:1015B00082801304840679BF91454A85D13588C05D
:1015C0002A8451FDB1472320F900E9BF797122D463
:1015D0004AD052CC56CA5AC85EC606D626D24ECE7D
:1015E0002A8AAE8A130485040149054BFD5B09EC88
:1015F000B25022544A8592540259F249624AD24A60
:10160000424BB24B45618280044483294400FD195A
:1016100063D409000040E1BF83D7C400637BFB00B3
:101620008397E40063877701A6855285829A3369A0
:10163000A90093848406E1BF1971A6DAAE8483956C
:10164000E500A2DC86DE328463DC050083D7C400BB
:1016500023A0060093F707089DE39307004015A019
:10166000300836C6612EB246E34205FE7247BD67BA
:10167000F98F7977BA9793B717009CC2F9BF930790
:1016800000041CC0F6506654D6540145096182809E
:1016900083D7C500011122CC06CE26CA4AC8898B41
:1016A0002E8489CF930774041CC01CC885475CC86E
:1016B000F2406244D24442490561828074003000A5
:1016C000AA849D3FA2452A892685392A01ED8317E0
:1016D000C40013F7072069FFF19B93E72700231647
:1016E000F400C9B797070000938727D99CD4835784
:1016F000C40008C008C893E707082316F400A247EF
:101700005CC8B24789CF8315E4002685292E01C91C
:101710008357C400F19B93E717002316F400835707
:10172000C4003369F9002316240159B72A8311C66E
:101730002300B3007D16050365FE8280CDC583A717
:10174000C5FF411122C406C626C21384C5FF63D358
:1017500007003E94AA84152697F7BF5F93878709F1
:101760009C4389EF2322040097F7BF5F23A48708D7
:101770002244B24026859244410109A6637EF400CA
:1017800014403307D4006396E7009843DC43369750
:1017900018C05CC0D1BFBA87D84319C3E37DE4FE4B
:1017A00094433386D700631F86001040B29694C3DB
:1017B0003386D700E31EC7FA10435843B29694C34A
:1017C000D8C37DB76375C400B1479CC055B71040FE
:1017D000B306C4006316D70014435843B29614C02E
:1017E00058C0C0C371B78280011126CA93843500E6
:1017F000F19806CE22CC4AC84EC6A104B14763F781
:10180000F404B14463E6B4042A89852C97F7BF5FDA
:10181000938747FE98433A8431E497F7BF5F9387F5
:10182000A7FD9C4381EB81454A85712897F7BF5FEF
:1018300023A4A7FCA6854A857920FD59631935079D
:10184000B1472320F9004A85152C29A0E3DC04FACE
:10185000B1471CC10145F2406244D2444249B249F9
:10186000056182801C40858F63C00704AD4663F626
:10187000F6001CC03E9404C001A85C4063148702BB
:1018800017F7BF5F2328F7F64A85CD2A1305B40062
:101890009307440061993307F54055DF3A94898FE7
:1018A0001CC055BF5CC3CDB722874040B5B71304F9
:1018B00035007198E30185FCB305A4404A852120D9
:1018C000E31B35FBB5BF411122C42A842E8523A812
:1018D000018E06C6492CFD576317F5009387018FCB
:1018E0009C4391C31CC0B2402244410182804111FB
:1018F00022C42E848395E50006C651226349050063
:101900007C48AA977CC8B240224441018280835718
:10191000C4007D777D17F98F2316F400EDB783D7C8
:10192000C500011122CC26CA4AC84EC606CE93F77E
:101930000710AA842E843289B68991C78395E50061
:101940008946014629228357C4007D777D17F98F88
:101950002316F4008315E4006244F240CE864A86E2
:10196000B24942492685D24405613DA8411122C4AD
:101970002E848395E50006C6D928FD570357C40079
:10198000631BF500FD77FD17F98F2316F400B240B5
:101990002244410182808567D98F2316F40068C8EC
:1019A000FDB78395E5003DA0411122C42A842E8510
:1019B000B285368623A8018E06C6292CFD576317EB
:1019C000F5009387018F9C4391C31CC0B240224411
:1019D00041018280411122C42A842E8523A8018ED0
:1019E00006C6E120FD576317F5009387018F9C43DE
:1019F00091C31CC0B240224441018280411122C4E3
:101A00002A842E85B28523A8018E06C6C120FD57E3
:101A10006317F5009387018F9C4391C31CC0B240AC
:101A2000224441018280411122C42A842E8523A8A8
:101A3000018E06C67D28FD576317F5009387018F39
:101A40009C4391C31CC0B240224441018280411199
:101A500022C42A842E85B285368623A8018E06C626
:101A60004D28FD576317F5009387018F9C4391C361
:101A70001CC0B24022444101828082808280411198
:101A800022C42A842E85B285368623A8018E06C6F6
:101A90007520FD576317F5009387018F9C4391C311
:101AA0001CC0B240224441018280011106CE22CCEA
:101AB00000102326A4FE592A2A87930780051CC3F9
:101AC000FD573E85F240624405618280011106CED9
:101AD00022CC00102326A4FE2324B4FE852A2A87C4
:101AE000930780FA1CC3FD573E85F24062440561AE
:101AF0008280011122CE00102326A4FE8327C4FE7B
:101B0000FD1793B7170093F7F70F3E8572440561F1
:101B10008280011106CE22CC00102326A4FE2324AD
:101B2000B4FE2322C4FE1D222A87930780051CC30E
:101B3000FD573E85F240624405618280011106CE68
:101B400022CC00102326A4FE2324B4FE2322C4FEAC
:101B5000F5282A87930780051CC3FD573E85F24070
:101B6000624405618280797122D60018232EA4FC7C
:101B7000B707008083A7877A2326F4FE138701D056
:101B8000938701506314F700FD5789A0B7070080C1
:101B900003A7877A8327C4FD3E979387015063701C
:101BA000F702B707008003A7877A8327C4FD3E9713
:101BB000B707008023A4E77A8327C4FE01A8B707EC
:101BC00000801387015023A4E77AFD573E853254E5
:101BD00045618280797106D622D40018232EA4FC98
:101BE000232CB4FC232AC4FC0327C4FD85476309C6
:101BF000F700A9282A87930780051CC3FD572DA845
:101C0000832784FD2324F4FE232604FE39A803271A
:101C100084FE8327C4FEBA9783C707003E85852EBE
:101C20008327C4FE85072326F4FE0327C4FE8327EB
:101C300044FDE36EF7FC81473E85B2502254456176
:101C40008280AA85814601460145F1A897F7BF5FCA
:101C5000938747B588438280411122C406C69707FF
:101C60000000938707152A8499C38145892297F735
:101C7000BF5F938767B388431C5591C382972285C2
:101C8000EF40301A411197E7FFFF9387276622C480
:101C900017E4FFFF130484651D8C26C206C6098461
:101CA000BE8411E4B24022449244410182807D14FA
:101CB00093172400A6979C438297E5B7411197E7B5
:101CC000FFFF9387A76122C417E4FFFF1304046199
:101CD0001D8C26C24AC006C6098481443E8963968B
:101CE000840297E7FFFF9387675F17E4FFFF130402
:101CF000E45E1D8C098481443E89639F8400B24068
:101D00002244924402494101828093972400CA9759
:101D10009C4385048297E1B793972400CA979C431C
:101D200085048297D9BF97F7BF5F938727AD9C4300
:101D30002A8E9DE317F7BF5F130707AD97F7BF5FC5
:101D400023AEE7AA17E5BFDF1305C52BBA8709C580
:101D50001C4123A6F18EBA87D8437D487D55634741
:101D6000E804630E0E0203A88708630108049318B1
:101D70002700C29823A0C800032308100546331685
:101D8000E6003363C3002320681023A0D8088946E7
:101D90006317DE0083264810558E2322C810930651
:101DA00017000A07D4C3BA978CC70145828079719E
:101DB00052CC56CA5AC85EC606D622D426D24AD0BB
:101DC0004ECE62C42A8B2E8A97FABF5F938A0AA3EB
:101DD000854B03A40A0011C8444083298408138951
:101DE000F4FF8A04A294635E0900B2502254925414
:101DF0000259F249624AD24A424BB24B224C4561E7
:101E00008280630E0A00639509007D19F114E1BF19
:101E100093172900CE9783A70708E39847FF5840F8
:101E2000DC407D176318270323222401F9DF032CEC
:101E300044006388090083A6091033972B01F98EAB
:101E400089EE8297584083A70A00E31487F9E30ECE
:101E5000F4FA41B723A20400D1BF93162900CE960D
:101E60008C4283A64910758F01E75A858297D9BFA6
:101E70002E858297C1BF011106CE22CC0010B70774
:101E8000008083A7C77FA9EFB7070080054723AE6F
:101E9000E77EB70740201387472EB7074020938778
:101EA000872D63F1E704B70740209387872D23260A
:101EB000F4FE31A88327C4FE9C432324F4FE832729
:101EC00084FE82978327C4FE91072326F4FE03270E
:101ED000C4FEB70740209387472EE31DF7FC21A0DF
:101EE000010011A00100F2406244056182800111ED
:101EF00006CE22CC0010B717008083A70780A9EF79
:101F0000B7170080054723A0E780B7074020138755
:101F1000872EB70740209387872E63F1E704B70722
:101F200040209387872E2326F4FE31A88327C4FE02
:101F30009C432324F4FE832784FE82978327C4FED8
:101F400091072326F4FE0327C4FEB707402093879A
:101F5000872EE31DF7FC21A0010011A00100F24033
:101F6000624405618280411106C622C400082137FF
:101F70000100B240224441018280411106C622C4C0
:101F80000008B5370100B2402244410182800111AE
:101F900006CE22CC00102326A4FE0327C4FEA947A8
:101FA0006314F700354511280325C4FE3920AA879C
:101FB0003E85F240624405618280011106CE22CC4A
:101FC00000102326A4FE8325C4FEB70700801385D6
:101FD00087752D28AA873E85F2406244056182807C
:101FE000011106CE22CC00102326A4FE2324B4FE29
:101FF0008327C4FE9C439C43832584FE0325C4FEA3
:1020000082970100F240624405618280011106CE90
:1020100022CC00102326A4FE2324B4FE8327C4FE72
:102020009C43DC43832584FE0325C4FE8297AA8754
:102030003E85F240624405618280011106CE22CCC9
:1020400000102326A4FE2324B4FE8327C4FE9C4351
:10205000DC4B832584FE0325C4FE8297AA873E8538
:10206000F240624405618280011122CE00102326D5
:10207000A4FE0327C4FE938701816315F700B70709
:10208000000211A081473E857244056182800111E2
:1020900022CE00102326A4FE0327C4FE93870181CD
:1020A0006314F700894711A081473E85724405619A
:1020B0008280011122CE00102326A4FE2324B4FE28
:1020C000832784FE91E7B70700809387870821A8BC
:1020D000032784FE85476317F700B70700809387BF
:1020E000870811A081473E857244056182800111F5
:1020F00022CE00102326A4FE2324B4FE832784FED0
:1021000099E38D4709A8032784FE85476314F700E8
:102110009D4711A081473E857244056182805D71B3
:1021200086C6A2C4CAC2CEC052DE56DC5ADA5ED817
:1021300062D666D48008232EA4FA8327C4FB3E858A
:1021400025372326A4FC0327C4FCB167F117BA97EF
:102150009C432324F4FC0327C4FCB167E117BA971E
:102160009C432322F4FC0327C4FCB167F117BA9700
:102170009C43032784FCE318F7FC832784FC3E8CF4
:10218000814C93190C000149832744FC3E8A814A03
:10219000336B4901B3EB5901DA875E883E85C2850E
:1021A000B640264416498649725AE25A525BC25BCF
:1021B000325CA25C61618280797106D622D44AD2F7
:1021C0004ED00018232EA4FC232CB4FC2328C4FCDE
:1021D000232AD4FC8327C4FD2326F4FE8327C4FED0
:1021E0003E8559352324A4FE832784FD8E073E8730
:1021F000832784FE3E9791679107BA973E87FD57E4
:102200001CC3832784FD8E073E87832784FE3E9769
:102210009167BA973E87832704FD1CC3832744FD3B
:1022200013D907008149832784FD8E073E878327C2
:1022300084FE3E9791679107BA974A8798C3814772
:102240003E85B25022541259825945618280011153
:1022500006CE22CC0010232604FEF32740F12326CD
:10226000F4FE8327C4FE3E85EF40E01B2324A4FE3A
:10227000032584FEEF40C018AA873E85F2406244E1
:1022800005618280397106DE22DC80002326A4FCF1
:102290000325C4FCED3B2324A4FE8327C4FC232296
:1022A000F4FE832744FEDC43A9EF232604FE81A02D
:1022B0008325C4FE0325C4FCED3B2320A4FE832517
:1022C000C4FE0325C4FC2535232EA4FC832704FE6D
:1022D0009C43DC4F8326C4FC01468325C4FD0325B3
:1022E00004FE82978327C4FE85072326F4FE032776
:1022F000C4FE832784FEE34DF7FA832744FE054797
:10230000D8C30100F250625421618280397106DE27
:1023100022DC80002326A4FC2324B4FC2322C4FC5A
:102320002320D4FCFD572326F4FEEF10803E23200B
:10233000A4FE232404FE213F232EA4FC0325C4FC79
:10234000B933232CA4FC032704FE85476308F70058
:10235000832704FE81C78327C4FE49A0232204FEED
:1023600091A0832544FE0325C4FC5133232AA4FCF9
:10237000832544FE0325C4FC2D3B2324A4FE032710
:10238000C4FD832784FE6318F700032784FC83279A
:1023900044FD6300F702232404FE832744FE8507DF
:1023A0002322F4FE032744FE832784FDE34BF7FA40
:1023B00011A00100832784FE85C3832784FE9C43EC
:1023C000DC4F832604FC032644FC832584FC032580
:1023D00084FE82972326A4FE8327C4FE3E85F25006
:1023E000625421618280797122D60018232EA4FCC8
:1023F000232CB4FC232AC4FC2328D4FCFD57232619
:10240000F4FE8327C4FE3E8532544561828001116B
:1024100006CE22CC00102326A4FEEF10802FAA8720
:102420003E85F240624405618280797106D622D4ED
:102430000018232EA4FC232CB4FCFD572326F4FE05
:1024400039352324A4FE832784FE95C3032784FD06
:10245000854763E0E702832784FE9C43DC438325B2
:1024600084FD032584FE82972326A4FE21A001007B
:1024700011A001008327C4FE3E85B250225445615D
:102480008280397106DE22DC80002326A4FC23240E
:10249000B4FCFD572326F4FE832784FCC9C72324FC
:1024A00004FE75332320A4FE0325C4FCCD36232E61
:1024B000A4FC232204FE91A0832544FE0325C4FC32
:1024C0003D31232CA4FC832544FE0325C4FCD536D2
:1024D0002324A4FE032704FE832784FE6318F70049
:1024E000032784FC832784FD6300F702232404FE72
:1024F000832744FE85072322F4FE032744FE832717
:10250000C4FDE34BF7FA11A00100832784FE81CFBD
:10251000832784FE9C43DC53832584FC032584FEAF
:1025200082972326A4FE8327C4FE3E85F250625480
:1025300021618280397106DE22DC80002326A4FC22
:102540002324B4FCFD572326F4FE832784FCC9C74B
:10255000232404FEED392320A4FE0325C4FC053EFC
:10256000232EA4FC232204FE91A0832544FE0325F0
:10257000C4FCB53E232CA4FC832544FE0325C4FCE7
:102580000D3E2324A4FE032704FE832784FE631844
:10259000F700032784FC832784FD6300F7022324CC
:1025A00004FE832744FE85072322F4FE032744FE0E
:1025B0008327C4FDE34BF7FA11A00100832784FEB3
:1025C00081CF832784FE9C439C57832584FC03256D
:1025D00084FE82972326A4FE8327C4FE3E85F25004
:1025E000625421618280797106D622D40018232E8C
:1025F000A4FC232CB4FC232AC4FCFD572326F4FEA0
:102600008327C4FD2324F4FE0325C4FDB13C23220B
:10261000A4FE032784FD89476308F704032784FD8C
:10262000894763C8E700032784FD8547630EF700E9
:10263000E9A8032784FD8D47630CF704032784FD75
:1026400091476308F708D1A0832744FDC5CB032534
:1026500084FEF134AA872E88032744FD1CC323225D
:102660000701232604FE59A8832744FDD1CB8327E5
:1026700044FD9C432320F4FE832704FE8A073E8703
:10268000832744FEBA9723A00700232604FE8DA8C3
:10269000832744FDA5CB832744FD9C432320F4FEE0
:1026A000832704FE8A073E87832744FEBA973E8726
:1026B00085471CC30F008004832704FE8A073E87DA
:1026C000832744FEBA979C432326F4FE232604FE68
:1026D00015A8232604FE832744FD9DC7832744FDB8
:1026E0009C432320F4FE832704FE8A073E8783272A
:1026F00044FEBA979C432326F4FE39A0010031A082
:10270000010021A0010011A001008327C4FE3E8525
:10271000B250225445618280797106D622D40018C5
:10272000232EA4FC232CB4FCEF309052AA8723263E
:10273000F4FE9307C4FE3E8689450325C4FD653536
:10274000AA873E85B250225445618280797106D6AF
:1027500022D40018232EA4FC232CB4FCEF30504FBD
:10276000AA872326F4FE9307C4FE3E868D450325E3
:10277000C4FD953DAA873E85B250225445618280B2
:10278000011122CE00102326A4FE0327C4FE938746
:1027900081816314F700814711A0FD573E85724483
:1027A00005618280011122CE00102326A4FE03279A
:1027B000C4FE938781816317F700B7470F009387A3
:1027C000072411A081473E85724405618280011172
:1027D00022CE00102326A4FE0327C4FE9387818106
:1027E0006317F700B70700809387870811A0814718
:1027F0003E85724405618280011122CE001023269D
:10280000A4FE0327C4FE938781816314F7008147E8
:1028100011A081473E85724405618280011122CE5C
:1028200000102326A4FE8327C4FE634AF00003277A
:10283000C4FE0A079387C180BA979C4311A08147C1
:102840003E85724405618280011122CE0010F3277B
:1028500040F12326F4FE8327C4FE3E8572440561C1
:102860008280011122CE0010A147F3A70730232652
:10287000F4FE0100724405618280011122CE001035
:10288000A147F3B707302326F4FE01007244056127
:102890008280011122CE0010A147F3A747302326E2
:1028A000F4FE0100724405618280011122CE001005
:1028B000A147F3B747302326F4FE010072440561B7
:1028C0008280011122CE001093070008F3A7473041
:1028D0002326F4FE0100724405618280011122CE9C
:1028E000001093070008F3B747302326F4FE0100D9
:1028F000724405618280011122CE001085679387A2
:102900000780F3A747302326F4FE010072440561D7
:102910008280011122CE0010856793870780F3B76C
:1029200047302326F4FE01007244056182807971EC
:1029300022D60018232EA4FC8327C4FD0547B31715
:10294000F7002326F4FE8327C4FEF3A74730232491
:10295000F4FE0100325445618280797122D600185C
:10296000232EA4FC8327C4FD0547B317F7002326B5
:10297000F4FE8327C4FEF3B747302324F4FE01009E
:10298000325445618280011106CE22CC00102326EC
:10299000A4FE2324B4FE13054006EF30302F0111AE
:1029A00006CE22CC00102326A4FE2324B4FE130559
:1029B000800CEF30B02D5D7186C696C49AC29EC061
:1029C00022DE2ADC2EDA32D836D63AD43ED242D0B3
:1029D00046CE72CC76CA7AC87EC680081305C0126D
:1029E000EF30D02A1D7186CE96CC9ACA9EC8A2C658
:1029F000AAC4AEC2B2C036DE3ADC3EDA42D846D60F
:102A000072D476D27AD07ECE80103D3D2A870A07D6
:102A10009387C180BA979C432326F4FA8327C4FA8C
:102A200085C70325C4FA65332324A4FA832784FACF
:102A300083A7070E2322F4FA832784FA83A7870D3E
:102A4000832544FA0D4582970100F640E64256433D
:102A5000C6433644264596450646F2566257D25737
:102A60004258B258225E925E025FF24F25617300B7
:102A70002030797106D622D40018232EA4FC232CF2
:102A8000B4FCD9332A870A079387C180BA979C433D
:102A90002326F4FEF32720342324F4FE8327C4FEE8
:102AA00095C70325C4FE25332322A4FE832784FE75
:102AB00093F7F73F032744FE9387870E8A07BA9759
:102AC0009C438325C4FD0325C4FE82970100B250B8
:102AD0002254456182801D7186CE96CC9ACA9EC8CA
:102AE000A2C6AAC4AEC2B2C036DE3ADC3EDA42D8D2
:102AF00046D672D476D27AD07ECE8010B1332A8771
:102B00000A079387C180BA979C432326F4FA832748
:102B1000C4FA85C70325C4FA5D392324A4FA8327A0
:102B200084FA83A707142322F4FA832784FA83A75D
:102B30008713832544FA1D4582970100F640E6423B
:102B40005643C6433644264596450646F2566257D6
:102B5000D2574258B258225E925E025FF24F256110
:102B600073002030011122CE00102326A4FE23245E
:102B7000B4FE0100724405618280797106D622D4C8
:102B80000018232EA4FC232CB4FC7D39AA873E8593
:102B900071312326A4FE0325C4FEEF10E02123207B
:102BA000A4FE2322B4FE832704FE032844FEA94585
:102BB0000146B386B70036853335F5003307C800C4
:102BC000B307E5003E87B6873A88BE85428603256F
:102BD000C4FEEF10C0240100B2502254456182802F
:102BE00000000000000000000000000000000000E5
:102BF00000000000000000000000000000000000D5
:102C0000197186DE96DC9ADA9ED8A2D6AAD4AED204
:102C1000B2D0B6CEBACCBECAC2C8C6C6F2C4F6C21C
:102C2000FAC07EDE00010D312A870A079387C18032
:102C3000BA979C432326F4FAF32720342324F4FA8A
:102C4000F32710342322F4FAF32730342320F4FA44
:102C5000F3275030232EF4F88327C4FAF5CB03254D
:102C6000C4FAB536232CA4F8832784FA93F7F73FE8
:102C7000232AF4F8832784FA63DE070A032744F93A
:102C8000930700086312F702832784F983A7873923
:102C90002328F4F8832784F983A70739832504F9C7
:102CA000032544F982976DA0032744F9AD4763D704
:102CB000E7008327C4F993F7F7039DEF832684F990
:102CC000032744F9BA878607BA978E07B69783A772
:102CD00087092328F4F8832684F9032744F9BA875F
:102CE0008607BA978E07B69783A70709832504F945
:102CF000032544F98297A9A88327C4F913F7F7039A
:102D000089476317F704F32770302326F4F88327E5
:102D100084F983A7C70D2328F4F88327C4F89C43BC
:102D20002324F4F8832784F8832504F9032544F940
:102D3000829739A8032784F9832744F99387870E5C
:102D40008A07BA979C43832544F90325C4FA8297DE
:102D5000F650E6525653C6533654265596550656E7
:102D6000F6466647D6474648B648264E964E064F24
:102D7000F25F0961730020300000000000000000D5
:102D80000000000000000000000000000000000043
:102D90000000000000000000000000000000000033
:102DA0000000000000000000000000000000000023
:102DB0000000000000000000000000000000000013
:102DC0000000000000000000000000000000000003
:102DD00000000000000000000000000000000000F3
:102DE00000000000000000000000000000000000E3
:102DF00000001D7186CE96CC9ACA9EC8A2C6AAC4EF
:102E0000AEC2B2C036DE3ADC3EDA42D846D672D422
:102E100076D27AD07ECE8010EFF01FA32A870A07E1
:102E20009387C180BA979C432326F4FA8327C4FA78
:102E30008DC70325C4FAEFF09F992324A4FA8327B2
:102E400084FA83A787212322F4FA832784FA83A7AD
:102E50000721832544FA414582970100F640E64266
:102E60005643C6433644264596450646F2566257B3
:102E7000D2574258B258225E925E025FF24F2561ED
:102E8000730020301D7186CE96CC9ACA9EC8A2C609
:102E9000AAC4AEC2B2C036DE3ADC3EDA42D846D66A
:102EA00072D476D27AD07ECE8010EFF0FF992A8746
:102EB0000A079387C180BA979C432326F4FA832795
:102EC000C4FA8DC70325C4FAEFF07F902324A4FA37
:102ED000832784FA83A707232322F4FA832784FA1B
:102EE00083A78722832544FA454582970100F6404F
:102EF000E6425643C6433644264596450646F256B4
:102F00006257D2574258B258225E925E025FF24F29
:102F10002561730020301D7186CE96CC9ACA9EC85A
:102F2000A2C6AAC4AEC2B2C036DE3ADC3EDA42D88D
:102F300046D672D476D27AD07ECE8010EFF0DF9073
:102F40002A870A079387C180BA979C432326F4FAFD
:102F50008327C4FA8DC70325C4FAEFF05F872324C3
:102F6000A4FA832784FA83A787242322F4FA8327E9
:102F700084FA83A70724832544FA494582970100F0
:102F8000F640E6425643C643364426459645064635
:102F9000F2566257D2574258B258225E925E025F92
:102FA000F24F2561730020301D7186CE96CC9ACAEF
:102FB0009EC8A2C6AAC4AEC2B2C036DE3ADC3EDAB1
:102FC00042D846D672D476D27AD07ECE8010EFF038
:102FD000BF872A870A079387C180BA979C43232615
:102FE000F4FA8327C4FA8DC70325C4FAEFF02FFE45
:102FF0002324A4FA832784FA83A707262322F4FA3A
:10300000832784FA83A78725832544FA4D45829731
:103010000100F640E6425643C643364426459645EF
:103020000646F2566257D2574258B258225E925E16
:10303000025FF24F2561730020301D7186CE96CC61
:103040009ACA9EC8A2C6AAC4AEC2B2C036DE3ADCD4
:103050003EDA42D846D672D476D27AD07ECE80106E
:10306000EFF08FFE2A870A079387C180BA979C43A7
:103070002326F4FA8327C4FA8DC70325C4FAEFF098
:103080000FF52324A4FA832784FA83A78727232212
:10309000F4FA832784FA83A70727832544FA514546
:1030A00082970100F640E6425643C6433644264521
:1030B00096450646F2566257D2574258B258225E9B
:1030C000925E025FF24F2561730020301D7186CE43
:1030D00096CC9ACA9EC8A2C6AAC4AEC2B2C036DEF8
:1030E0003ADC3EDA42D846D672D476D27AD07ECE58
:1030F0008010EFF06FF52A870A079387C180BA978F
:103100009C432326F4FA8327C4FA8DC70325C4FA07
:10311000EFF0EFEB2324A4FA832784FA83A707298F
:103120002322F4FA832784FA83A78728832544FA85
:10313000554582970100F640E6425643C643364461
:10314000264596450646F2566257D2574258B2581F
:10315000225E925E025FF24F2561730020301D7186
:1031600086CE96CC9ACA9EC8A2C6AAC4AEC2B2C027
:1031700036DE3ADC3EDA42D846D672D476D27AD0FF
:103180007ECE8010EFF04FEC2A870A079387C1802C
:10319000BA979C432326F4FA8327C4FA8DC70325E4
:1031A000C4FAEFF0CFE22324A4FA832784FA83A79A
:1031B000872A2322F4FA832784FA83A7072A832500
:1031C00044FA594582970100F640E6425643C64309
:1031D0003644264596450646F2566257D25742581F
:1031E000B258225E925E025FF24F2561730020307A
:1031F0001D7186CE96CC9ACA9EC8A2C6AAC4AEC27B
:10320000B2C036DE3ADC3EDA42D846D672D476D246
:103210007AD07ECE8010EFF02FE32A870A079387BB
:10322000C180BA979C432326F4FA8327C4FA8DC73A
:103230000325C4FAEFF0AFD92324A4FA832784FA34
:1032400083A7072C2322F4FA832784FA83A7872BEA
:10325000832544FA5D4582970100F640E6425643D5
:10326000C6433644264596450646F2566257D2571F
:103270004258B258225E925E025FF24F256173009F
:1032800020301D7186CE96CC9ACA9EC8A2C6AAC40A
:10329000AEC2B2C036DE3ADC3EDA42D846D672D48E
:1032A00076D27AD07ECE8010EFF00FDA2A870A0726
:1032B0009387C180BA979C432326F4FA8327C4FAE4
:1032C0008DC70325C4FAEFF08FD02324A4FA8327F7
:1032D00084FA83A7872D2322F4FA832784FA83A70D
:1032E000072D832544FA614582970100F640E642A6
:1032F0005643C6433644264596450646F25662571F
:10330000D2574258B258225E925E025FF24F256158
:10331000730020301D7186CE96CC9ACA9EC8A2C674
:10332000AAC4AEC2B2C036DE3ADC3EDA42D846D6D5
:1033300072D476D27AD07ECE8010EFF0EFD02A878A
:103340000A079387C180BA979C432326F4FA832700
:10335000C4FA8DC70325C4FAEFF06FC72324A4FA7B
:10336000832784FA83A7072F2322F4FA832784FA7A
:1033700083A7872E832544FA654582970100F6408E
:10338000E6425643C6433644264596450646F2561F
:103390006257D2574258B258225E925E025FF24F95
:1033A0002561730020301D7186CE96CC9ACA9EC8C6
:1033B000A2C6AAC4AEC2B2C036DE3ADC3EDA42D8F9
:1033C00046D672D476D27AD07ECE8010EFF0CFC7B8
:1033D0002A870A079387C180BA979C432326F4FA69
:1033E0008327C4FA8DC70325C4FAEFF04FBE232408
:1033F000A4FA832784FA83A787302322F4FA832749
:1034000084FA83A70730832544FA6945829701002F
:10341000F640E6425643C6433644264596450646A0
:10342000F2566257D2574258B258225E925E025FFD
:10343000F24F2561730020301D7186CE96CC9ACA5A
:103440009EC8A2C6AAC4AEC2B2C036DE3ADC3EDA1C
:1034500042D846D672D476D27AD07ECE8010EFF0A3
:10346000AFBE2A870A079387C180BA979C43232659
:10347000F4FA8327C4FA8DC70325C4FAEFF02FB5F9
:103480002324A4FA832784FA83A707322322F4FA99
:10349000832784FA83A78731832544FA6D45829771
:1034A0000100F640E6425643C6433644264596455B
:1034B0000646F2566257D2574258B258225E925E82
:1034C000025FF24F2561730020301D7186CE96CCCD
:1034D0009ACA9EC8A2C6AAC4AEC2B2C036DE3ADC40
:1034E0003EDA42D846D672D476D27AD07ECE8010DA
:1034F000EFF08FB52A870A079387C180BA979C435C
:103500002326F4FA8327C4FA8DC70325C4FAEFF003
:103510000FAC2324A4FA832784FA83A787332322BA
:10352000F4FA832784FA83A70733832544FA714585
:1035300082970100F640E6425643C643364426458C
:1035400096450646F2566257D2574258B258225E06
:10355000925E025FF24F2561730020301D7186CEAE
:1035600096CC9ACA9EC8A2C6AAC4AEC2B2C036DE63
:103570003ADC3EDA42D846D672D476D27AD07ECEC3
:103580008010EFF06FAC2A870A079387C180BA9743
:103590009C432326F4FA8327C4FA8DC70325C4FA73
:1035A000EFF0EFA22324A4FA832784FA83A7073538
:1035B0002322F4FA832784FA83A78734832544FAE5
:1035C000754582970100F640E6425643C6433644AD
:1035D000264596450646F2566257D2574258B2588B
:1035E000225E925E025FF24F2561730020301D71F2
:1035F00086CE96CC9ACA9EC8A2C6AAC4AEC2B2C093
:1036000036DE3ADC3EDA42D846D672D476D27AD06A
:103610007ECE8010EFF04FA32A870A079387C180E0
:10362000BA979C432326F4FA8327C4FA8DC703254F
:10363000C4FAEFF0CF992324A4FA832784FA83A74E
:1036400087362322F4FA832784FA83A70736832553
:1036500044FA794582970100F640E6425643C64354
:103660003644264596450646F2566257D25742588A
:10367000B258225E925E025FF24F256173002030E5
:103680001D7186CE96CC9ACA9EC8A2C6AAC4AEC2E6
:10369000B2C036DE3ADC3EDA42D846D672D476D2B2
:1036A0007AD07ECE8010EFF02F9A2A870A07938770
:1036B000C180BA979C432326F4FA8327C4FA8DC7A6
:1036C0000325C4FAEFF0AF902324A4FA832784FAE9
:1036D00083A707382322F4FA832784FA83A787373E
:1036E000832544FA7D4582970100F640E642564321
:1036F000C6433644264596450646F2566257D2578B
:103700004258B258225E925E025FF24F256173000A
:103710002030011122CE0010F32750302326F4FE72
:103720008327C4FE93F7F7032326F4FE0327C4FE82
:103730008947630DF7000327C4FE8D47630AF7002E
:103740000327C4FE85476307F70039A08D4731A0E2
:10375000914721A0854711A081473E8572440561AC
:103760008280797122D60018232EA4FC232CB4FC6D
:10377000F32750302326F4FE8327C4FE93F707FC7B
:103780002326F4FE832784FD2324F4FE0327C4FDAF
:10379000914763E0E7068327C4FD13972700B70727
:1037A00040209387C745BA979C438287832784FE2E
:1037B000739077308327C4FE93E7270073905730C8
:1037C0000DA8832784FE739077308327C4FE93E788
:1037D00037007390573031A8832784FE93E7170092
:1037E0007390573039A0832784FEF19B7390573034
:1037F00001000100325445618280011122CE001087
:103800002326A4FE0327C4FEAD476302F704032763
:10381000C4FEAD4763CDE7000327C4FE8D476308B0
:10382000F7020327C4FE9D476303F7021DA0032789
:10383000C4FEC147634FF7000327C4FEFD4763D8AA
:10384000E7000327C4FE930700086314F7008547C9
:1038500019A0010081473E8572440561828079711B
:1038600006D622D40018232EA4FC232CB4FC232A31
:10387000C4FC232604FE8327C4FD99E3FD5749A811
:10388000032784FDFD4763E0E708832784FD139742
:103890002700B707402093870747BA979C43828742
:1038A000832744FD81C7EFE0DFFB8DA0EFE0FFFC45
:1038B000B1A8832744FD81C7EFE0BFFD81A8EFE0F9
:1038C000DFFEA9A0832744FD81C7EFE09FFF3DA84D
:1038D000EFF0CF8025A8832744FD81C7EFF0AF81AB
:1038E00035A0EFF00F831DA0832744FD99C78327E0
:1038F00084FD3E85EFF0AF8311A8832784FD3E85CC
:10390000EFF0AF8521A0FD572326F4FE8327C4FEE8
:103910003E85B250225445618280797122D60018CA
:10392000232EA4FC232CB4FC232AC4FC8327C4FD2F
:103930002326F4FE032784FDAD4763C2E7028327F5
:1039400044FD91CF0327C4FE832784FD9387870E10
:103950008A07BA97032744FD98C3814711A0FD57F2
:103960003E85325445618280797106D622D4001892
:10397000232EA4FC8327C4FD2322F4FE832744FEC8
:10398000DC43DDEF232604FEB9A0832644FE032793
:10399000C4FEBA878607BA978E07B69723A807088A
:1039A000832644FE0327C4FEBA878607BA978E078C
:1039B000B69723AA0708832644FE0327C4FEBA87C6
:1039C0008607BA978E07B69723AC07088327C4FEED
:1039D00085072326F4FE0327C4FEFD47E3D7E7FA55
:1039E000232404FE1DA0032744FE832784FE93871F
:1039F000870E8A07BA97373740201307679898C30E
:103A0000832784FE85072324F4FE032784FEAD4725
:103A1000E3DBE7FCF32750302320F4FEB707402018
:103A200093878717032704FE6318F700B7374020F2
:103A3000938507C001453533832744FE0547D8C326
:103A40000100B250225445618280797106D622D499
:103A50000018232EA4FC232CB4FC232AC4FC232806
:103A6000D4FC232604FE8327C4FD2324F4FE03256F
:103A700084FD6133AA8799E3D55771AA032784FD92
:103A8000930700086317F7006931AA8799C3CD57D8
:103A900059A2832744FDB9CF032784FD930700086B
:103AA000631FF700832784FE032744FD23A8E7381C
:103AB000832784FE032704FD23ACE73899AA8326D5
:103AC00084FE032784FDBA878607BA978E07B697C8
:103AD000032744FD23A8E708832684FE032784FDEB
:103AE000BA878607BA978E07B697032704FD23ACDB
:103AF000E70805A2032784FDAD47630CF70C0327F5
:103B000084FDAD4763CDE700032784FD8D4763093E
:103B1000F702032784FD9D476301F706C5A8032725
:103B200084FDC1476344F70E032784FDFD4763D23C
:103B3000E70A032784FD93070008630DF706F9A041
:103B4000832684FE032784FDBA878607BA978E07EB
:103B5000B69737374020130727A723A8E7088326FF
:103B600084FE032784FDBA878607BA978E07B69727
:103B7000032704FD23AAE70869A8832684FE0327F8
:103B800084FDBA878607BA978E07B69737374020E5
:103B90001307A7B723A8E708832684FE032784FD1D
:103BA000BA878607BA978E07B697032704FD23AA1C
:103BB000E70885A0832784FE37374020130747B6E0
:103BC00023A8E738832784FE032704FD23ACE738C6
:103BD00089A0832684FE032784FDBA878607BA97C7
:103BE0008E07B697373740201307E79923A8E708D1
:103BF000832684FE032784FDBA878607BA978E073B
:103C0000B697032704FD23AAE70821A0D15723264E
:103C1000F4FE8327C4FE3E85B25022544561828063
:103C2000011106CE22CC00102326A4FE2324B4FECC
:103C3000832784FE0546BE850325C4FE0D31AA8771
:103C40003E85F240624405618280011106CE22CC9D
:103C500000102326A4FE2324B4FE832784FE0146FD
:103C6000BE850325C4FEE53EAA873E85F240624438
:103C700005618280011106CE22CC00102326A4FE0D
:103C8000EFF03FA9AA873E85F24062440561828039
:103C9000011106CE22CC00102326A4FE2324B4FE5C
:103CA000832784FE99EBB7374020938507C003250F
:103CB00084FEEFF01FAB81470DA0032784FE8547EC
:103CC000631CF700B767402093850750032584FEE7
:103CD000EFF03FA9814711A0FD573E85F2406244B5
:103CE00005618280011122CE00102326A4FE232428
:103CF000B4FE2322C4FE81473E8572440561828062
:103D0000397122DE80002326A4FC01438143232451
:103D100064FE232674FE732500B82322A4FE7325B7
:103D200000B02320A4FE732500B8232EA4FC832812
:103D300044FE0325C4FDE390A8FE032544FEAA85A6
:103D40000146139805008147032604FEB286014709
:103D500033E6D7002324C4FEB367E8002326F4FE2D
:103D6000832784FE0328C4FE3E85C28572542161E8
:103D70008280797106D622D44AD24ED00018232EE2
:103D8000A4FC8327C4FD81E70149814921A80325BB
:103D9000C4FDEFE03FA12326A4FE8327C4FE3E8995
:103DA000FD87BE89CA874E883E85C285B25022549F
:103DB0001259825945618280797106D622D4001841
:103DC000232EA4FC814701482320F4FE232204FF74
:103DD0000325C4FDEFE0BF9F2326A4FE8327C4FE76
:103DE0008DC78327C4FE83A7C7132324F4FE83272C
:103DF00084FE81CF832784FE9C43F847930704FE0B
:103E00003E868545032584FE0297832704FE03280A
:103E100044FE3E85C285B25022544561828079714C
:103E200006D622D426D20018232EA4FC2328B4FCC4
:103E3000232AC4FCFD572326F4FE0325C4FDEFE02E
:103E40001F992324A4FE832784FE8DCF832784FE1D
:103E500083A7C7132322F4FE832744FE85C7832745
:103E600044FE9C43A44B0325C4FDEFE07F91AA8749
:103E7000032604FD832644FDBE85032544FE82946B
:103E80002326A4FE8327C4FE3E85B25022549254BA
:103E900045618280011122CE00102326A4FE938763
:103EA00001813E85724405618280011122CE00109D
:103EB0002326A4FE9D473E85724405618280011140
:103EC00022CE00102326A4FE938701813E857244F2
:103ED00005618280011122CE00102326A4FE8D47A9
:103EE0003E85724405618280797106D622D400181D
:103EF000232EA4FC232CB4FCFD572326F4FE03251B
:103F0000C4FDEFE0DF8C2324A4FE832784FE9DC73D
:103F1000832784FE83A7C70D2322F4FE832744FE54
:103F200091CF832744FE9C43F847930784FD3E8648
:103F30008D45032544FE02972326A4FE8327C4FE55
:103F40003E85B250225445618280797106D622D4D2
:103F50000018232EA4FC232CB4FCFD572326F4FECA
:103F60000325C4FDEFE0BF862324A4FE832784FE3F
:103F70009DC7832784FE83A7C70D2322F4FE8327D2
:103F800044FE91CF832744FE9C43F847930784FD6A
:103F90003E868945032544FE02972326A4FE8327F7
:103FA000C4FE3E85B250225445618280797106D6A6
:103FB00022D40018232EA4FC232CB4FC232604FEB8
:103FC0000325C4FDEFE0BF802324A4FE832784FEE5
:103FD0009DC7832784FE83A7C70D2322F4FE832772
:103FE00044FE91CF832744FE9C43F847930784FD0A
:103FF0003E869145032544FE02972326A4FE83278F
:10400000C4FE3E85B250225445618280011106CE25
:1040100022CC00102326A4FE0325C4FEEFE02FFBD4
:10402000AA873E85F240624405618280797106D696
:1040300022D40018232EA4FC232CB4FC232AC4FC75
:104040000325C4FDEFE0AFF82326A4FE8327C4FEBA
:1040500099CB032644FD832584FD0325C4FEEFF0A0
:10406000DF8BAA8711A0FD573E85B25022544561CF
:104070008280011122CE00102326A4FE2324B4FE48
:10408000832784FE83D7070013F737008D47631417
:10409000F700914711A089473E85724405618280EF
:1040A000797122D60018232EA4FCF327103423267E
:1040B000F4FE8327C4FE3E8532544561828001119F
:1040C00022CE00102326A4FE2324B4FE832784FEE0
:1040D0007390173481473E857244056182800111D7
:1040E00006CE22CC00102326A4FE0325C4FEEFE05A
:1040F000AFF0AA873E85F2406244056182800111DB
:1041000022CE00102326A4FE0327C4FEB70700809A
:10411000938787456315F700B707000C11A0814707
:104120003E85724405618280011122CE0010232653
:10413000A4FE0327C4FEB707008093878745631456
:10414000F700ED4711A081473E85724405618280EA
:10415000011122CE00102326A4FE0327C4FEB707B8
:104160000080938787456314F7009D4711A081471E
:104170003E85724405618280011122CE0010232603
:10418000A4FE2324B4FE832784FE91E7B7070080B2
:104190009387870811A081473E857244056182801C
:1041A000011122CE00102326A4FE2324B4FE83276F
:1041B00084FE99E3AD4711A081473E8572440561B5
:1041C0008280011122CE00102326A4FE8327C4FE84
:1041D00099E3814711A0FD573E85724405618280B5
:1041E000797106D622D40018232EA4FC232CB4FC0B
:1041F0000325C4FD29372326A4FE832784FD1397B6
:10420000C7008327C4FE3E97B70720009107BA97DF
:104210009C433E85B250225445618280797106D616
:1042200022D40018232EA4FC232CB4FC232AC4FC83
:104230000325C4FDE9352326A4FE832784FD1397B7
:10424000C7008327C4FE3E97B70720009107BA979F
:104250003E87832744FD1CC30100B25022544561B0
:104260008280797106D622D40018232EA4FC232C38
:10427000B4FC232AC4FC0325C4FD51352326A4FE27
:10428000832784FD1397C7008327C4FE3E97B70793
:104290002000BA973E87832744FD1CC381473E8593
:1042A000B250225445618280797106D622D400181A
:1042B000232EA4FC232CB4FC0325C4FD893523261E
:1042C000A4FE832784FD1397C7008327C4FE3E976F
:1042D000B7072000BA979C433E85B25022544561EF
:1042E0008280797106D622D40018232EA4FC232CB8
:1042F000B4FC232AC4FC0325C4FD11352326A4FEE7
:104300000325C4FDB135AA872324F4FE832784FE48
:1043100085C7032744FD832784FE637FF700832737
:1043200084FD8A073E878327C4FEBA973E8783278A
:1043300044FD1CC3814711A0FD573E85B250225455
:1043400045618280797106D622D40018232EA4FC00
:10435000232CB4FC0325C4FD5D332326A4FE832750
:1043600084FD8A073E878327C4FEBA979C433E8517
:10437000B250225445618280797106D622D4001849
:10438000232EA4FC232CB4FC232AC4FC2328D4FC15
:104390000325C4FDAD332326A4FE832784FD139794
:1043A00077008327C4FEBA97032744FD15870A07C1
:1043B0003E978967BA979C432324F4FE832704FD24
:1043C00081CF832744FDFD8B0547B317F7003E8758
:1043D000832784FED98F29A8832744FDFD8B0547B9
:1043E000B317F70093C7F7FF3E87832784FEF98F43
:1043F000032784FD931677000327C4FE3697832690
:1044000044FD95868A06BA96096736971CC381478C
:104410003E85B250225445618280011106CE22CCE5
:1044200000102326A4FE2324B4FE1305C012EF209F
:10443000E005797106D622D40018232EA4FC232C83
:10444000B4FC832784FD2326F4FEEFE0EFBFAA87A8
:104450003E85853B2324A4FE832584FE0325C4FEDC
:1044600041332322A4FE0325C4FE7D39AA872320DD
:10447000F4FE032744FE832704FE6372F704032738
:10448000C4FE832744FE8A07BA979C478DCB032737
:10449000C4FE832744FE8A07BA9703A88700032631
:1044A00044FE8326C4FE032744FEBA878607BA97D4
:1044B0008E07B69783A78708BE85328502980326A4
:1044C00044FE832584FE0325C4FE893B0100B250CF
:1044D000225445618280397106DE22DC8000232669
:1044E000A4FC8327C4FC2322F4FE832744FEDC4380
:1044F00063960712232604FE11AA0325C4FC2D315E
:104500002320A4FE8325C4FE0325C4FCB531232E3D
:10451000A4FC8325C4FE0325C4FC5931232CA4FC30
:104520008327C4FD9C439C430325C4FD8297232419
:1045300004FE85A88146032684FE8325C4FE032548
:1045400044FE1D3D032784FE832704FE6356F704C3
:104550000146832584FE0325C4FC6133032744FE02
:10456000832784FE8A07BA9723A40700832644FE84
:10457000032784FEBA878607BA978E07B69723A2C9
:104580000708832644FE032784FEBA878607BA9766
:104590008E07B69723A40708832784FE8507232464
:1045A000F4FE032784FE9307F03FE3D5E7F80146C6
:1045B0008325C4FE0325C4FC6D318327C4FD9C43C1
:1045C000DC4F832644FE0146832584FD0325C4FD7C
:1045D00082978327C4FD9C43D84F832644FEB74768
:1045E000402013862743832584FD0325C4FD0297BD
:1045F0008327C4FD9C43DC53832584FD0325C4FD30
:1046000082978327C4FE85072326F4FE8327C4FEF2
:10461000E355F0EE832744FE0547D8C30100F2506E
:10462000625421618280797106D622D40018232E2B
:10463000A4FC232CB4FC232AC4FC2328D4FC832709
:10464000C4FD2326F4FE0325C4FDEFF0FFAD2A8749
:10465000832784FD63C4E700FD5749A0832744FDF9
:1046600095CF0946832584FD0325C4FD9D39032785
:10467000C4FE832784FD8A07BA97032744FD98C7A1
:104680008326C4FE032784FDBA878607BA978E0760
:10469000B697032704FD23A4E70881A005468325D8
:1046A00084FD0325C4FDEFF0DFC30327C4FE832789
:1046B00084FD8A07BA97374740201307A74198C758
:1046C0008326C4FE032784FDBA878607BA978E0720
:1046D000B697032704FD23A2E70881473E85B25021
:1046E000225445618280797106D622D40018232E87
:1046F000A4FC232CB4FC8327C4FD2326F4FE03254D
:10470000C4FDEFF07FA22A87832784FD63C4E700FE
:10471000FD5729A8EFE04F93AA878546032684FD1D
:10472000BE850325C4FEEFF03FC581473E85B250EC
:10473000225445618280797106D622D40018232E36
:10474000A4FC232CB4FC8327C4FD2326F4FE0325FC
:10475000C4FDEFF07F9D2A87832784FD63C4E700B3
:10476000FD5729A8EFE04F8EAA878146032684FDD6
:10477000BE850325C4FEEFF03FC081473E85B250A1
:10478000225445618280011106CE22CC00102326DE
:10479000A4FE2324B4FEEFE02F8BAA87032684FE19
:1047A000BE850325C4FEEFF0DFABAA873E85F2404D
:1047B000624405618280011106CE22CC00102326BE
:1047C000A4FEEFE06F88AA87BE850325C4FEEFF044
:1047D000BFADAA873E85F24062440561828079714F
:1047E00006D622D40018232EA4FC232CB4FC232AA2
:1047F000C4FC232204FE8327C4FD2324F4FE0325E6
:10480000C4FDEFF07F922A87832744FD63C8E70049
:10481000FD572322F4FE832744FE99A8232604FE95
:1048200099A08327C4FE95C78546032644FD8325AA
:10483000C4FE032584FEEFF03FB4AA8713F71700E8
:104840008327C4FE3317F700832744FED98F232222
:10485000F4FE8327C4FE85072326F4FE832784FD08
:104860008583232CF4FC832784FDC5FF832744FE26
:104870003E85B250225445618280797106D622D499
:104880000018232EA4FC232CB4FC232AC4FC2322CE
:1048900004FE8327C4FD2324F4FE0325C4FDEFF0AA
:1048A000BF882A87832744FD63C8E700FD5723227A
:1048B000F4FE832744FE99A8232604FE99A08327AB
:1048C000C4FE95C78146032644FD8325C4FE032507
:1048D00084FEEFF07FAAAA8713F717008327C4FE90
:1048E0003317F700832744FED98F2322F4FE832752
:1048F000C4FE85072326F4FE832784FD8583232CAD
:10490000F4FC832784FDC5FF832744FE3E85B25017
:10491000225445618280797106D622D40018232E54
:10492000A4FC232CB4FC232AC4FC232404FE232649
:1049300004FE91A08327C4FE8DC7032644FD832572
:10494000C4FE0325C4FDEFF0DF91AA8713F717001B
:104950008327C4FE3317F700832784FED98F2324CF
:10496000F4FE8327C4FE85072326F4FE832784FDF7
:104970008583232CF4FC832784FDCDFF832784FECD
:104980003E85B250225445618280011106CE22CC70
:1049900000102326A4FE2324B4FE832584FE0325D1
:1049A000C4FEEFF07F9081473E85F240624405618E
:1049B0008280011122CE00102326A4FEB7070080BA
:1049C0009387C7063E85724405618280011122CE1D
:1049D00000102326A4FE938781823E8572440561E0
:1049E0008280011122CE00102326A4FE81473E853D
:1049F000724405618280411122C600089387C183F9
:104A00003E85324441018280397106DE22DC80001D
:104A10002326A4FC0325C4FC693F2326A4FE03250A
:104A2000C4FCC1372324A4FE0325C4FC453723223C
:104A3000A4FED1372320A4FE832704FE9C438325B4
:104A400084FE032544FE8297232EA4FC0327C4FD85
:104A5000B7070040F98F99E3FD5725A08327C4FDD0
:104A600063C40700FD5731A80325C4FEEF10700C86
:104A7000AA873E878327C4FD93F7F7038507B357BB
:104A8000F7023E85F250625421618280011106CE08
:104A900022CC00102326A4FE2324B4FE0325C4FE4A
:104AA000A537AA873E85F2406244056182800111E4
:104AB00022CE00102326A4FEB707008093870706A6
:104AC0003E85724405618280011122CE00102326AA
:104AD000A4FE938781823E85724405618280011124
:104AE00022CE00102326A4FE91473E857244056124
:104AF0008280411122C600089387C1833E853244DB
:104B000041018280397106DE22DC80002326A4FC6C
:104B10000325C4FC693F2326A4FE0325C4FCC1373A
:104B20002324A4FE0325C4FC45372322A4FED13749
:104B30002320A4FE832704FE9C43832584FE0325B3
:104B400044FE8297232EA4FC0327C4FDB707004030
:104B5000F98F99E3FD5721A88327C4FD63C407009B
:104B6000FD5731A00325C4FEEF10A07CAA873E8527
:104B7000F250625421618280011106CE22CC0010D5
:104B80002326A4FE2324B4FE0325C4FEA53FAA8742
:104B90003E85F240624405618280011122CE001000
:104BA0002326A4FEB7070080938787773E8572444B
:104BB00005618280011122CE00102326A4FEB707D2
:104BC0000080938747783E85724405618280011199
:104BD00022CE00102326A4FE938781823E85724454
:104BE00005618280011122CE00102326A4FEB14768
:104BF0003E85724405618280411122C60008938778
:104C000081823E85324441018280411122C60008E2
:104C1000A1473E85324441018280411122C60008ED
:104C2000B727F400938707403E85324441018280D4
:104C3000411122C60008B78700103E853244410169
:104C40008280411122C600089387C1833E85324489
:104C500041018280011122CE00102326A4FE2324CC
:104C6000B4FE832784FE9C470327C4FE6369F700D4
:104C7000832784FEDC470327C4FE63F4E700FD5767
:104C800029A8832784FE98438327C4FE3307F702AD
:104C9000832784FEDC43B357F7023E8572440561E7
:104CA0008280397106DE22DC80002326A4FC832763
:104CB000C4FC3E8501372326A4FE85372324A4FEA9
:104CC000A9372322A4FEAD372320A4FE032704FE28
:104CD000832744FEBA97232EF4FC8327C4FCDC43CD
:104CE0003E85EF10C05B8327C4FD9843C167F98FF1
:104CF00091CB8327C4FD9843C177FD177D8F832710
:104D0000C4FD98C38327C4FE91CB8327C4FD984379
:104D1000B70702005D8F8327C4FD98C38327C4FCB7
:104D20009C43D8438327C4FC832584FE3E85029799
:104D30008327C4FC9C473E85EF1060560100F2506B
:104D40006254216182801D7186CEA2CC8010232600
:104D5000A4FA0325C4FAB93D2326A4FE0325C4FA08
:104D60002D3D2324A4FE0325C4FA45352322A4FEA9
:104D70000325C4FA51352320A4FE0325C4FA9D352A
:104D8000232EA4FC0325C4FA9935232CA4FC553DFD
:104D9000232AA4FC832744FD9C43832544FE03254A
:104DA00004FE82972328A4FC832744FD9C4383258B
:104DB000C4FD032584FD82972326A4FC032704FD5C
:104DC000C1677D8FC1676378F700032584FEEF100C
:104DD0004056AA87E1A8032704FDB70702007D8F8C
:104DE000B70702006365F7008327C4FE19A0832775
:104DF00084FE3E85EF10E0532324A4FC032704FD2A
:104E0000B70704007D8FB70704006365F7008327A9
:104E100084FC69A8832704FD9D8B85072322F4FC6D
:104E2000832704FD93F7073F918385078607232097
:104E3000F4FC032704FD8567938707C07D8F9307E4
:104E4000F03F63E4E700FD5795A0032704FD856765
:104E5000938707C0F98FA9830547B317F700232E5F
:104E6000F4FA032784FC832744FC3347F7028327A3
:104E700004FC3307F7028327C4FBB347F702232C54
:104E8000F4FA8327C4FC13F707109307F00F63F5B8
:104E9000E700832784FB19A8032784FB8327C4FC2E
:104EA00093F7F70385078607B357F7023E85F64069
:104EB000664425618280397106DE22DC800023266B
:104EC000A4FC2324B4FCFD572326F4FEB70700807E
:104ED00093C7F7FF2324F4FE930730042322F4FE44
:104EE000ADA08326C4FC832744FE13975700B70761
:104EF00040209387C75FBA97BE853685A13B2320A4
:104F0000A4FE032704FEFD57630CF702032704FEEB
:104F1000832784FC1D8F9357F7413D8FB307F740DC
:104F2000232EF4FC0327C4FD832784FE635AF70075
:104F3000832744FE2326F4FE8327C4FD2324F4FEA6
:104F4000832744FEFD172322F4FE832744FEE3DA81
:104F500007F88327C4FE3E85F250625421618280A7
:104F6000797106D622D40018232EA4FC232CB4FC7D
:104F7000232AC4FC8327C4FD9C4313F787FF8327A0
:104F8000C4FD98C38327C4FD9843832744FD9C4BED
:104F90009D8B5D8F8327C4FD98C38327C4FD9C43ED
:104FA00013F7F7C08327C4FD98C38327C4FD984334
:104FB000832744FDDC4B920793F7073F5D8F8327E0
:104FC000C4FD98C38327C4FD9843FD779387F73FBB
:104FD0007D8F8327C4FD98C38327C4FD984383270F
:104FE00044FD9C4F9396A7008567938707C0F58F74
:104FF0005D8F8327C4FD98C3832744FDDC4F63DBAB
:105000000702832784FD9C4313E70710832784FD51
:1050100098C3832784FD9C4313F707FC832784FDF3
:1050200098C3832784FD9C4313E71700832784FDDF
:1050300098C32DA8832784FD9C4313F7F7EF83279C
:1050400084FD98C3832784FD9C4313F707FC8327C3
:1050500084FD98C3832784FD9843832744FDDC4F58
:1050600093F7F7035D8F832784FD98C38327C4FDDF
:105070009843B707FCFFFD177D8F8327C4FD98C3B6
:10508000930704FE3E86854513850181EFD0AFD599
:10509000832604FE032744FE91450146B387B600EC
:1050A0003E853335D5003308C700330705013A88FC
:1050B0002324F4FE232604FF09A8930704FE3E865A
:1050C000854513850181EFD00FD2832704FE032885
:1050D00044FE0327C4FEC286636BD7000327C4FEC9
:1050E000C286E31CD7FC032784FEE378F7FC0100AB
:1050F0008327C4FD9C43E3DD07FE0100B250225428
:10510000456182805D7186C6A2C48008232EA4FA00
:10511000232CB4FA0325C4FBEFF0DFA92326A4FE59
:105120000325C4FBEFF07FA72324A4FE0325C4FBC3
:10513000EFF0BFAD2322A4FE0325C4FBEFF09FAA2E
:105140002320A4FEEFF0DFAE232EA4FC0327C4FD32
:10515000832744FEBA97232CF4FC0327C4FD83273E
:1051600004FEBA97232AF4FC832784FD9843C16781
:10517000F98F91CB832784FD9843C177FD177D8FED
:10518000832784FD98C3832784FD9843B7070200D3
:10519000F98F81C78327C4FE19A0832784FE3E852B
:1051A000EF1020192328A4FC032704FDBA878607E3
:1051B000BA9713D7F7410D8BBA9789873E87832714
:1051C00084FB63CBE702032704FDBA878A07BA97FB
:1051D00013D7F7410D8BBA9789873E87832784FBC6
:1051E000634CF700832784FD9843B70704005D8F65
:1051F000832784FD98C381A8832584FB032504FDB0
:10520000EFF07FCB2326A4FC0327C4FCFD576303E8
:10521000F7028327C4FC13975700B70740209387F2
:10522000C75FBA973E86832544FD032584FDEFF0D2
:105230003FD311A8832784FD9843B70704005D8FEF
:10524000832784FD98C3832784FD9843C1675D8FBE
:10525000832784FD98C30325C4FBEFF0DFAEAA8744
:105260003E85B640264461618280411122C6000815
:10527000B78700103E85324441018280797106D69D
:1052800022D40018232EA4FC232CB4FCF93FAA87B7
:105290002326F4FE032784FD8327C4FEBA979C438C
:1052A0003E85B250225445618280797106D622D45F
:1052B0000018232EA4FC232CB4FC232AC4FC75372D
:1052C000AA872326F4FE032784FD8327C4FEBA970A
:1052D0003E87832744FD1CC33E85B250225445615E
:1052E0008280011122CE00102326A4FE0327C4FED3
:1052F000938701826315F700B727011011A081473A
:105300003E85724405618280011122CE0010232661
:10531000A4FE0327C4FE938701826317F700B70733
:1053200000809387874511A081473E8572440561BF
:105330008280011122CE00102326A4FE2324B4FE75
:105340000327C4FE938701826317F700832784FE37
:1053500099E39D4769A20327C4FE938701826319DD
:10536000F700032784FE85476314F700A14785AA49
:105370000327C4FE938701826319F700032784FE85
:1053800089476314F700A54799AA0327C4FE9387AA
:1053900001826319F700032784FE8D476314F70029
:1053A000A94735AA0327C4FE938701826319F70032
:1053B000032784FE91476314F700AD470DA203272E
:1053C000C4FE938701826319F700032784FE954783
:1053D0006314F700B14721A20327C4FE938701821B
:1053E0006319F700032784FE99476314F700B54754
:1053F000FDA00327C4FE938701826319F7000327EA
:1054000084FE9D476314F700B947D1A80327C4FE63
:10541000938701826319F700032784FEA147631471
:10542000F700BD476DA80327C4FE93870182631967
:10543000F700032784FEA5476314F700C14745A082
:105440000327C4FE938701826319F700032784FEB4
:10545000A9476314F700C54759A00327C4FE9387E3
:1054600001826319F700032784FEAD476314F70038
:10547000C947B5A00327C4FE938701826319F700CB
:10548000032784FEB1476314F700CD4789A803279B
:10549000C4FE938701826319F700032784FEB54792
:1054A0006314F700D14725A80327C4FE9387018220
:1054B0006319F700032784FEB9476314F700D54743
:1054C00039A80327C4FE938701826319F7000327D5
:1054D00084FEBD476314F700D94711A081473E857C
:1054E000724405618280797106D622D40018232E79
:1054F000A4FC232CB4FC0325C4FDE533AA87232692
:10550000F4FE8327C4FE91079843832784FD8326F6
:10551000C4FE9106D98F9CC281473E85B250225469
:1055200045618280797106D622D40018232EA4FC0E
:10553000232CB4FC0325C4FDEFF0BFDAAA87232691
:10554000F4FE8327C4FE91079C43032784FD134781
:10555000F7FFBA860327C4FE1107F58F1CC38147E6
:105560003E85B250225445618280797106D622D49C
:105570000018232EA4FC0325C4FDEFF09FD6AA87B4
:105580002326F4FE8327C4FE9C433E85B25022545A
:1055900045618280797106D622D40018232EA4FC9E
:1055A0000325C4FDEFF0FFD3AA872326F4FE83274B
:1055B000C4FEB1079C433E85B250225445618280AF
:1055C000797106D622D40018232EA4FC232CB4FC17
:1055D0000325C4FDEFF0FFD0AA872326F4FE83271E
:1055E000C4FEA1079C43032784FD1347F7FFBA8637
:1055F0000327C4FE2107F58F1CC381473E85B250A7
:10560000225445618280797106D622D40018232E57
:10561000A4FC232CB4FC0325C4FDEFF09FCCAA8787
:105620002326F4FE8327C4FEA1079843832784FD25
:105630008326C4FEA106D98F9CC281473E85B25005
:10564000225445618280797106D622D40018232E17
:10565000A4FC232CB4FC0325C4FDEFF09FC8AA874B
:105660002326F4FE8327C4FEB1079843832784FDD5
:105670008326C4FEB106D98F9CC281473E85B250B5
:10568000225445618280797106D622D40018232ED7
:10569000A4FC232CB4FC0325C4FDEFF09FC4AA870F
:1056A0002326F4FE8327C4FEB1079C43032784FD11
:1056B0001347F7FFBA860327C4FE3107F58F1CC3D3
:1056C00081473E85B250225445618280797106D669
:1056D00022D40018232EA4FC232CB4FC0325C4FDE3
:1056E000EFF03FC0AA872326F4FE8327C4FEB1074C
:1056F0009843832784FD8326C4FEB106B98F9CC2DC
:1057000081473E85B250225445618280797106D628
:1057100022D40018232EA4FC232CB4FC232AC4FC7E
:105720000325C4FDEFF0FFBBAA872326F4FE8327E1
:10573000C4FE9387C7039843832784FD8326C4FE52
:105740009386C603D98F9CC28327C4FE93878703A1
:105750009843832744FD8326C4FE93868603D98F0E
:105760009CC281473E85B250225445618280797146
:1057700006D622D40018232EA4FC232CB4FC032527
:10578000C4FDEFF01FB6AA872326F4FE8327C4FECC
:10579000938787039C43032784FD1347F7FFBA864B
:1057A0000327C4FE13078703F58F1CC381473E857B
:1057B000B250225445618280797106D622D40018F5
:1057C000232EA4FC232CB4FC232AC4FC0325C4FDF3
:1057D000EFF03FB1AA872326F4FE032744FD9D473F
:1057E00063E9E71C832744FD13972700B717402080
:1057F000938787E8BA979C4382878327C4FEE10793
:105800009C43032784FD1347F7FFBA860327C4FE92
:105810006107F58F1CC38327C4FE938707029C434F
:10582000032784FD1347F7FFBA860327C4FE130737
:105830000702F58F1CC38327C4FE938787029C430E
:10584000032784FD1347F7FFBA860327C4FE130717
:105850008702F58F1CC38327C4FE938707039C43ED
:10586000032784FD1347F7FFBA860327C4FE1307F7
:105870000703F58F1CC335AA8327C4FEE1079843AD
:10588000832784FD8326C4FEE106D98F9CC215A21E
:105890008327C4FE938707029843832784FD8326CA
:1058A000C4FE93860602D98F9CC221A28327C4FE20
:1058B000E1079843832784FD8326C4FEE106D98F40
:1058C0009CC28327C4FE938707029843832784FDE5
:1058D0008326C4FE93860602D98F9CC2D9A883274B
:1058E000C4FE938787029843832784FD8326C4FEE2
:1058F00093868602D98F9CC26DA88327C4FE9387A6
:1059000007039843832784FD8326C4FE93860603FA
:10591000D98F9CC279A88327C4FE938787029843B6
:10592000832784FD8326C4FE93868602D98F9CC27A
:105930008327C4FE938707039843832784FD832628
:10594000C4FE93860603D98F9CC2A5A08327C4FEFC
:10595000E1079843832784FD8326C4FEE106D98F9F
:105960009CC28327C4FE938707029843832784FD44
:105970008326C4FE93860602D98F9CC28327C4FE69
:10598000938787029843832784FD8326C4FE9386EA
:105990008602D98F9CC28327C4FE9387070398434E
:1059A000832784FD8326C4FE93860603D98F9CC279
:1059B000010081473E85B250225445618280797151
:1059C00006D622D40018232EA4FC232CB4FC232AB0
:1059D000C4FC0325C4FDEFF0DF90AA872326F4FE64
:1059E000032744FD9D4763EAE714832744FD13978B
:1059F0002700B7174020938787EABA979C4382878E
:105A00008327C4FEF1079843832784FD8326C4FEC1
:105A1000F106D98F9CC215A28327C4FE9387470243
:105A20009843832784FD8326C4FE93864602D98F3C
:105A30009CC221A28327C4FEF1079843832784FDDB
:105A40008326C4FEF106D98F9CC28327C4FE9387A8
:105A500047029843832784FD8326C4FE938646022B
:105A6000D98F9CC2D9A88327C4FE9387C7029843C5
:105A7000832784FD8326C4FE9386C602D98F9CC2E9
:105A80006DA88327C4FE938747039843832784FD2B
:105A90008326C4FE93864603D98F9CC279A88327A8
:105AA000C4FE9387C7029843832784FD8326C4FEE0
:105AB0009386C602D98F9CC28327C4FE938747036F
:105AC0009843832784FD8326C4FE93864603D98F9B
:105AD0009CC2A5A08327C4FEF1079843832784FDB9
:105AE0008326C4FEF106D98F9CC28327C4FE938708
:105AF00047029843832784FD8326C4FE938646028B
:105B0000D98F9CC28327C4FE9387C70298438327FB
